:1000000071C000005EC200008CC000008AC0000009
:1000100088C0000086C0000084C0000082C00000CC
:1000200080C000007EC000007CC000007AC00000DC
:1000300078C0000076C0000074C0000072C00000EC
:1000400070C000006EC000006CC000006AC00000FC
:1000500068C0000066C0000064C0000062C000000C
:1000600060C000005EC000005CC000005AC000001C
:1000700058C0000056C0000054C0000052C000002C
:1000800050C000004EC000004CC000004AC000003C
:1000900048C0000046C0000044C0000042C000004C
:1000A00040C000003EC000003CC000003AC000005C
:1000B00038C0000036C0000034C0000032C000006C
:1000C00030C000002EC000002CC000002AC000007C
:1000D00028C0000026C0000024C0000022C000008C
:1000E00020C0000011241FBECFEFD1E2DEBFCDBF84
:1000F00000E00CBF12E0A0E0B2E0E6E5FCE000E0CA
:100100000BBF02C007900D92A430B107D9F722E0CF
:10011000A4E0B2E001C01D92AA35B207E1F7F1D325
:1001200098C56ECF86E69EE00197F1F700004098F3
:10013000419880E388B9429AEFEFF7E43197F1F7FD
:1001400000C000004298E6E6FEE03197F1F70000BB
:100150004098419888B9429AEFEFF7E43197F1F768
:1001600000C000004298E6E6FEE03197F1F700009B
:100170004098419888B9429A8FEF97E40197F1F738
:1001800000C000004298E6E6FEE03197F1F700007B
:100190004098419880E288B9429A8FEF97E401979E
:1001A000F1F700C000004298089598B19F7098B987
:1001B00098B1282F207F922B98B940984198429A65
:1001C000EFEFF7E43197F1F700C00000429898B1E3
:1001D0009F7098B998B18295807F892B88B9409893
:1001E0004198429A8FEF97E40197F1F700C0000021
:1001F0004298089586E69EE00197F1F7000088E2B4
:10020000D4DF81E0D2DF86E0D0DF8EE0CEDF80E891
:10021000CCCF089598B19F7098B998B1282F207FBE
:10022000922B98B9409A4198429AEFEFF7E43197B0
:10023000F1F700C00000429898B19F7098B998B14A
:100240008295807F892B88B9409A4198429A8FEF96
:1002500097E40197F1F700C000004298089580E804
:10026000A4CF0895823069F018F4813031F00895F8
:10027000833059F0843069F008958FE7860F95CF69
:1002800008958FEB860F91CF089583E9860F8DCF68
:10029000089583ED860F89CF08950F931F93CF9311
:1002A000DF938A01E901882311F0611102C0D7DFD1
:1002B00001C0D8DFC530D10509F0D1C09801329511
:1002C00022952F7023273F702327A7E4B3E0B2D4F1
:1002D000969587959695879596958795C0969093D0
:1002E00046028093450296DF98013695279536950C
:1002F000279536952795A5ECB0E29CD4AC01529594
:1003000042954F7045275F704527509348024093B0
:1003100047029A01ADECBCEC8DD4969587959695E5
:100320008795969587959C01220F331F880F991FFB
:10033000880F991F880F991F820F931F9A01281BFE
:10034000390BC901C096909357028093560262DF21
:1003500003C0C330D10579F59801369527953695B8
:100360002795ABE7B4E166D4AC0156954795509319
:100370004802409347029A01ADECBCEC5BD49695E1
:10038000879596958795969587959C01220F331FA3
:10039000880F991F880F991F880F991F820F931F2D
:1003A0009A01281B390BC901C09690935302809380
:1003B000520230DF04C0C230D10509F055C09801A7
:1003C000ADECBCEC37D4AC015695479556954795A6
:1003D0005695479550934802409347029A012AD474
:1003E0009695879596958795969587959C01220F6A
:1003F000331F880F991F880F991F880F991F820F2D
:10040000931F9A01281B390BC901C0969093510282
:1004100080935002FFDE9801ADECBCEC0BD49695B6
:10042000879596958795969587959C01220F331F02
:10043000880F991F880F991F880F991F820F931F8C
:100440009801281B390BC901C096909355028093DF
:100450005402E0DE269764F085E4DCDE09C0C43097
:10046000D10509F076CF40CFC130D10599F7D3CF70
:10047000DF91CF911F910F91089587B1876F87B951
:1004800088B1807888B9089510BA11BA109207011E
:1004900010920801089581B1806E81B982B1806E99
:1004A00082B9089580EF84B915B850985898089586
:1004B000F894E9E6F0E0808182608083E89A78949D
:1004C00008951F920F920FB60F9211248F939F934E
:1004D0008091040290910502019690930502809309
:1004E00004029F918F910F900FBE0F901F9018954F
:1004F000E1E0F1E0808188608083E2E0F1E08081EA
:10050000886080830895E1E0F1E0808180618083EC
:10051000E2E0F1E0808180618083089581B18F60A5
:1005200081B982B1807F82B9EAE0F1E0808188619F
:100530008083EBE0F1E0808188618083089581B160
:10054000806F81B982B1807F82B90895E1E2F1E0E4
:1005500010828FEF8093250191E0909324011092F7
:1005600029018093280110922B0180932A01109277
:100570002D0180932C0189EA809320018BE08083F8
:100580000895E1EAF0E010828CEF8093A50081E00D
:100590008093A40093E09093A9008FEF8093A8002C
:1005A0009093AB008093AA009093A7008093A6003D
:1005B00083EA8093A0001092A2008CE080830895CB
:1005C000EAE7F0E0108210927B0080E280937C00EA
:1005D00080E880BF86E8808308954FDF55DF9EDF87
:1005E000AEDF86DF90DFB2DFCCDFEACF0895883060
:1005F00018F098E090937B008770806280937C0075
:10060000EAE7F0E0808180648083808184FFFDCF11
:1006100080917900EAE7F0E09081906190831092F8
:100620007B00089592B1907F8F70982B92B90895B6
:1006300086E0F8CF08958AE0F5CF089584E0F2CF00
:10064000089582E0EFCF089580E0ECCF0895BF9247
:10065000CF92DF92EF92FF920F931F93CF93DF938E
:10066000E7DF86E98093280180932A0108E211E000
:100670000F2EF8E7FF2EF02DCAE2D1E00F2EFCE896
:10068000EF2EF02D0F2EF2E8DF2EF02D0F2EF6E9D3
:10069000BF2EF02D0F2EF0EACF2EF02D86E69EE035
:1006A0000197F1F7000081E0A2DF8093080282E069
:1006B0009EDF8093070283E09ADF809306024091D9
:1006C000080250E023E030E061E081E0E6DD4091A7
:1006D000070250E023E030E065E081E0DEDD40919C
:1006E000060250E023E030E069E081E0D6DD82E000
:1006F0007EDF883808F049C081E079DF883808F06B
:1007000044C083E074DF883808F03FC081E06FDFC9
:10071000853640F081E06BDF883820F48FDFF80108
:10072000F082E88282E063DF853640F082E05FDFBE
:10073000883820F47DDFF801D082B88283E057DF6B
:10074000853640F083E053DF883820F47ADFF80103
:10075000E082F88281E04BDF8F3140F081E047DFBB
:10076000853620F465DFF801F082C88283E03FDF40
:100770008F3108F493CF83E03ADF853608F08ECFCF
:1007800057DFF801E082E88281CF4091080250E013
:1007900023E030E061E081E080DD4091070250E03D
:1007A00023E030E065E081E078DD4091060250E032
:1007B00023E030E069E081E070DD3ADF82E8809399
:1007C000280180932A019FEFEFEBF6E09150E04083
:1007D000F040E1F700C0000037DF8FEF9FEFDF91BF
:1007E000CF911F910F91FF90EF90DF90CF90BF902E
:1007F000089583E39BE20197F1F71DDF86E980937B
:10080000280180932A019FEF2FE78DE0915020402F
:100810008040E1F700C0000082E0E9DE8F31E0F3C4
:1008200013CF0895CF93C82F90E011DF019649F0C0
:1008300081E090E090930A0280930902DADF8C2F26
:10084000F1DFCF9108951092A900682F70E080E049
:1008500090E062D12BE734E14EEE5FE3C9D020E0B7
:1008600030E04CE052E460D02BD16093A8000895B2
:100870001092AB00682F70E080E090E04DD12BE744
:1008800034E14EEE5FE3B4D020E030E04CE052E4DF
:100890004BD016D16093AA00089583E08093A900FD
:1008A0008FEF8093A800089583E08093AB008FEFD3
:1008B0008093AA00089580910202C5DF2FEF8FEF89
:1008C0009CE2215080409040E1F700C00000E5DF4D
:1008D00080910002CDDF2FEF8FEF9CE2215080400E
:1008E0009040E1F700C00000DFCF0895F89475DE76
:1008F00067DE2CDE46DEDCDDD5DDCDDDBEDD7894C9
:100900000895F4DF0FDC76DC2FEF8FEF90EE2150AF
:1009100080409040E1F700C00000CDDF81E082DF41
:1009200080E090E008955058BB27AA270ED048C118
:1009300039D130F03ED120F031F49F3F11F41EF454
:100940002EC10EF4E095E7FB24C1E92F4AD180F3D4
:10095000BA17620773078407950718F071F49EF5BC
:1009600062C10EF4E0950B2EBA2FA02D0B01B90138
:1009700090010C01CA01A0011124FF27591B99F015
:10098000593F50F4503E68F11A16F040A22F232F21
:10099000342F4427585FF3CF469537952795A79571
:1009A000F0405395C9F77EF41F16BA0B620B730B18
:1009B000840BBAF09150A1F0FF0FBB1F661F771F89
:1009C000881FC2F70EC0BA0F621F731F841F48F43E
:1009D000879577956795B795F7959E3F08F0B3CFC4
:1009E0009395880F08F09927EE0F979587950895AE
:1009F0000CD0E6C0DED040F0D5D030F021F45F3F1F
:100A000019F0C7C0511110C1CAC0EBD098F3992397
:100A1000C9F35523B1F3951B550BBB27AA276217C2
:100A20007307840738F09F5F5F4F220F331F441F07
:100A3000AA1FA9F333D00E2E3AF0E0E830D091503F
:100A40005040E695001CCAF729D0FE2F27D0660F2C
:100A5000771F881FBB1F261737074807AB07B0E86B
:100A600009F0BB0B802DBF01FF2793585F4F2AF081
:100A70009E3F510568F08DC0D7C05F3FECF3983EB4
:100A8000DCF3869577956795B795F7959F5FC9F7DE
:100A9000880F911D9695879597F90895E1E0660F67
:100AA000771F881FBB1F621773078407BA0720F0E0
:100AB000621B730B840BBA0BEE1F88F7E095089549
:100AC00098D088F09F5790F0B92F9927B751A0F090
:100AD000D1F0660F771F881F991F1AF0BA95C9F7D2
:100AE00012C0B13081F09FD0B1E008959CC0672F53
:100AF000782F8827B85F39F0B93FCCF38695779582
:100B00006795B395D9F73EF490958095709561956A
:100B10007F4F8F4F9F4F0895E89409C097FB3EF495
:100B200090958095709561957F4F8F4F9F4F99233A
:100B3000A9F0F92F96E9BB279395F69587957795B8
:100B40006795B795F111F8CFFAF4BB0F11F460FF78
:100B50001BC06F5F7F4F8F4F9F4F16C0882311F0D0
:100B600096E911C0772321F09EE8872F762F05C0E4
:100B7000662371F096E8862F70E060E02AF09A957F
:100B8000660F771F881FDAF7880F9695879597F974
:100B9000089597F99F6780E870E060E008959FEFFF
:100BA00080EC089500240A94161617061806090604
:100BB000089500240A9412161306140605060895D3
:100BC000092E0394000C11F4882352F0BB0F40F45B
:100BD000BF2B11F460FF04C06F5F7F4F8F4F9F4F9B
:100BE000089557FD9058440F551F59F05F3F71F01D
:100BF0004795880F97FB991F61F09F3F79F0879584
:100C00000895121613061406551FF2CF4695F1DF0C
:100C100008C0161617061806991FF1CF869571059C
:100C2000610508940895E894BB2766277727CB01D0
:100C300097F90895A29FB001B39FC001A39F700DC3
:100C4000811D1124911DB29F700D811D1124911DD4
:060C50000895F894FFCFA7
:040C56001E008C00F0
:00000001FF
