:100000000C9472000C943E020C9493000C94930098
:100010000C9493000C9493000C9493000C94930014
:100020000C9493000C9493000C9493000C94930004
:100030000C9493000C9493000C9493000C949300F4
:100040000C9493000C9493000C9493000C949300E4
:100050000C9493000C9493000C9493000C949300D4
:100060000C9493000C9493000C9493000C949300C4
:100070000C9493000C9493000C9493000C949300B4
:100080000C9493000C9493000C9493000C949300A4
:100090000C9493000C9493000C9493000C94930094
:1000A0000C9493000C9493000C9493000C94930084
:1000B0000C9493000C9493000C9493000C94930074
:1000C0000C9493000C9493000C9493000C94930064
:1000D0000C9493000C9493000C9493000C94930054
:1000E0000C94930011241FBECFEFD1E2DEBFCDBF31
:1000F00000E00CBF12E0A0E0B2E0E2E2F7E000E0D6
:100100000BBF02C007900D92AA33B107D9F712E0D6
:10011000AAE3B2E001C01D92A035B107E1F70E9449
:100120009E020C948F030C94000086E69EE00197DB
:10013000F1F700004098419880E388B9429AEFEFC8
:10014000F7E43197F1F700C000004298E6E6FEE0E0
:100150003197F1F700004098419888B9429AEFEF43
:10016000F7E43197F1F700C000004298E6E6FEE0C0
:100170003197F1F700004098419888B9429A8FEF83
:1001800097E40197F1F700C000004298E6E6FEE030
:100190003197F1F700004098419880E288B9429A7F
:1001A0008FEF97E40197F1F700C00000429808959F
:1001B00098B19F7098B998B1282F207F922B98B949
:1001C00040984198429AEFEFF7E43197F1F700C079
:1001D0000000429898B19F7098B998B18295807F3D
:1001E000892B88B940984198429A8FEF97E40197FC
:1001F000F1F700C000004298089586E69EE001975E
:10020000F1F7000088E20E94D80081E00E94D80047
:1002100086E00E94D8008EE00E94D80080E80E940C
:10022000D800089598B19F7098B998B1282F207F71
:10023000922B98B9409A4198429AEFEFF7E43197A0
:10024000F1F700C00000429898B19F7098B998B13A
:100250008295807F892B88B9409A4198429A8FEF86
:1002600097E40197F1F700C000004298089580E8F4
:100270000E94D8000895CF93DF93EC0188818823F2
:1002800031F021960E94120189918823D9F7DF91DC
:10029000CF910895823079F0833018F48130C9F419
:1002A00005C0833069F08430A1F40FC0862F8158D7
:1002B0000E94D8000895862F81540E94D800089586
:1002C000862F8D560E94D8000895862F8D520E9449
:1002D000D80008950F931F93CF93DF938A01E9010C
:1002E000882311F0662319F40E94370102C00E948E
:1002F0004A01C530D10571F4C80160E177E20E947E
:100300007B03CB01C09690933F0280933E020E94F4
:10031000120103C0C430D105B9F4C80168EE73E01E
:100320000E947B03CB0170934102609340026AE01C
:1003300070E00E947B03C09690934F0280934E0220
:100340000E94120181E001C080E0C330D10511F0AC
:100350008130B1F4C80164E670E00E947B03CB01F8
:1003600070934102609340026AE070E00E947B0358
:10037000C09690934B0280934A020E94120181E042
:10038000C230D10511F08130B1F42AE030E0C8016B
:10039000B9010E947B03CB0170934102609340023C
:1003A000B9010E947B03C096909349028093480252
:1003B0000E94120181E0C130D10511F0813061F459
:1003C000C8016AE070E00E947B03C09690934D02E2
:1003D00080934C020E941201C630D1051CF085E4C6
:1003E0000E941201DF91CF911F910F91089581B169
:1003F000806E81B982B1806E82B9089580E682B93B
:10040000089580EA82B9089580EC82B908958FEF4B
:1004100082B9089587B1876F87B988B1807888B924
:100420000895CF93DF938FEF9FE7AFE18150904026
:10043000A040E1F700C0000081E061E00E944A01B5
:10044000C0E0D2E0CE010E943B0182E061E00E9468
:100450004A01CE010E943B01DF91CF91089580EFC8
:1004600084B915B8509858980895F894E9E6F0E0E2
:10047000808182608083E89A789408951F920F9219
:100480000FB60F9211248F939F9380913A0290910F
:100490003B02019690933B0280933A029F918F9189
:1004A0000F900FBE0F901F901895F8940E94350280
:1004B0000E942F020E94F7010E940A027894089578
:1004C00080E185B9089580ED85B9089580E985B901
:1004D00008952F9A089580E185B908950E946002D9
:1004E00010923B0210923A028FEF9FEFA1E18150F0
:1004F0009040A040E1F700C0000008950E94630210
:1005000010923B0210923A028FEF9FE3A4E18150D8
:100510009040A040E1F700C0000008950E946602EC
:1005200010923B0210923A028FEF9FE3A4E18150B8
:100530009040A040E1F700C0000008950E945502DD
:100540000E946B020E9495000E94FD000F2EF1E1B7
:10055000CF2EF2E0DF2EF02DC8E1D2E009E212E06A
:100560000F2EF1E2EF2EF2E0FF2EF02D0E946E0230
:1005700080913A0290913B0290934502809344020D
:1005800081E061E00E944A0181E061E041E050E0E9
:1005900021E030E00E946A014091440250914502FE
:1005A00082E061E025E030E00E946A010E941102D1
:1005B0000E947E0280913A0290913B029093430206
:1005C0008093420281E061E042E050E021E030E0CF
:1005D0000E946A01409142025091430282E061E030
:1005E00025E030E00E946A010E9411020E948E0202
:1005F00080913A0290913B0290933D0280933C029D
:1006000081E061E043E050E021E030E00E946A01D7
:1006100040913C0250913D0282E061E025E030E0F3
:100620000E946A010E9411024091440250914502C9
:1006300080913702909138024817590710F5809140
:100640004202909143022091350230913602821786
:100650009307B8F480913C0290913D0220913302BF
:10066000309134028217930760F40E94070281E000
:1006700061E00E944A01C6010E943B010E941102F2
:1006800075CF80914202909143028417950740F400
:1006900080913C0290913D0284179507A0F007C01D
:1006A00020913C0230913D0228173907C0F00E948A
:1006B000040281E061E00E944A01CE010E943B01F8
:1006C0000E94110253CF0E94FE0181E061E00E946E
:1006D0004A01C7010E943B010E94110247CF0E94BC
:1006E000010281E061E00E944A01C8010E943B01D1
:1006F0000E9411023BCFAA1BBB1B51E107C0AA1FDE
:10070000BB1FA617B70710F0A61BB70B881F991FB2
:100710005A95A9F780959095BC01CD010895F8945C
:02072000FFCF09
:1007220020202020202020202020202020202020C7
:10073200004E6F204E757400626C7565204E7574A4
:1007420000524544204E757400475245454E204E96
:0A075200757400D007D0078813006B
:00000001FF
